{
  "_format": "hh-sol-artifact-1",
  "contractName": "SampleNFT",
  "sourceName": "contracts/SampleNFT.sol",
  "abi": [
    {
      "inputs": [
        {
          "internalType": "string",
          "name": "_baseURI",
          "type": "string"
        },
        {
          "internalType": "string",
          "name": "collectionURI",
          "type": "string"
        }
      ],
      "stateMutability": "nonpayable",
      "type": "constructor"
    },
    {
      "anonymous": false,
      "inputs": [
        {
          "indexed": true,
          "internalType": "address",
          "name": "owner",
          "type": "address"
        },
        {
          "indexed": true,
          "internalType": "address",
          "name": "approved",
          "type": "address"
        },
        {
          "indexed": true,
          "internalType": "uint256",
          "name": "tokenId",
          "type": "uint256"
        }
      ],
      "name": "Approval",
      "type": "event"
    },
    {
      "anonymous": false,
      "inputs": [
        {
          "indexed": true,
          "internalType": "address",
          "name": "owner",
          "type": "address"
        },
        {
          "indexed": true,
          "internalType": "address",
          "name": "operator",
          "type": "address"
        },
        {
          "indexed": false,
          "internalType": "bool",
          "name": "approved",
          "type": "bool"
        }
      ],
      "name": "ApprovalForAll",
      "type": "event"
    },
    {
      "anonymous": false,
      "inputs": [
        {
          "indexed": true,
          "internalType": "address",
          "name": "previousOwner",
          "type": "address"
        },
        {
          "indexed": true,
          "internalType": "address",
          "name": "newOwner",
          "type": "address"
        }
      ],
      "name": "OwnershipTransferred",
      "type": "event"
    },
    {
      "anonymous": false,
      "inputs": [
        {
          "indexed": true,
          "internalType": "address",
          "name": "from",
          "type": "address"
        },
        {
          "indexed": true,
          "internalType": "address",
          "name": "to",
          "type": "address"
        },
        {
          "indexed": true,
          "internalType": "uint256",
          "name": "tokenId",
          "type": "uint256"
        }
      ],
      "name": "Transfer",
      "type": "event"
    },
    {
      "inputs": [],
      "name": "PUBLIC_SALE_PRICE",
      "outputs": [
        {
          "internalType": "uint256",
          "name": "",
          "type": "uint256"
        }
      ],
      "stateMutability": "view",
      "type": "function"
    },
    {
      "inputs": [],
      "name": "WHITELIST_SALE_PRICE",
      "outputs": [
        {
          "internalType": "uint256",
          "name": "",
          "type": "uint256"
        }
      ],
      "stateMutability": "view",
      "type": "function"
    },
    {
      "inputs": [
        {
          "internalType": "address",
          "name": "to",
          "type": "address"
        },
        {
          "internalType": "uint256",
          "name": "tokenId",
          "type": "uint256"
        }
      ],
      "name": "approve",
      "outputs": [],
      "stateMutability": "nonpayable",
      "type": "function"
    },
    {
      "inputs": [
        {
          "internalType": "address",
          "name": "owner",
          "type": "address"
        }
      ],
      "name": "balanceOf",
      "outputs": [
        {
          "internalType": "uint256",
          "name": "",
          "type": "uint256"
        }
      ],
      "stateMutability": "view",
      "type": "function"
    },
    {
      "inputs": [],
      "name": "baseURI",
      "outputs": [
        {
          "internalType": "string",
          "name": "",
          "type": "string"
        }
      ],
      "stateMutability": "view",
      "type": "function"
    },
    {
      "inputs": [
        {
          "internalType": "address",
          "name": "",
          "type": "address"
        }
      ],
      "name": "claimed",
      "outputs": [
        {
          "internalType": "bool",
          "name": "",
          "type": "bool"
        }
      ],
      "stateMutability": "view",
      "type": "function"
    },
    {
      "inputs": [],
      "name": "contractURI",
      "outputs": [
        {
          "internalType": "string",
          "name": "",
          "type": "string"
        }
      ],
      "stateMutability": "view",
      "type": "function"
    },
    {
      "inputs": [
        {
          "internalType": "uint256",
          "name": "tokenId",
          "type": "uint256"
        }
      ],
      "name": "getApproved",
      "outputs": [
        {
          "internalType": "address",
          "name": "",
          "type": "address"
        }
      ],
      "stateMutability": "view",
      "type": "function"
    },
    {
      "inputs": [],
      "name": "giftMerkleRoot",
      "outputs": [
        {
          "internalType": "bytes32",
          "name": "",
          "type": "bytes32"
        }
      ],
      "stateMutability": "view",
      "type": "function"
    },
    {
      "inputs": [],
      "name": "giftMintId",
      "outputs": [
        {
          "internalType": "uint256",
          "name": "",
          "type": "uint256"
        }
      ],
      "stateMutability": "view",
      "type": "function"
    },
    {
      "inputs": [
        {
          "internalType": "address",
          "name": "owner",
          "type": "address"
        },
        {
          "internalType": "address",
          "name": "operator",
          "type": "address"
        }
      ],
      "name": "isApprovedForAll",
      "outputs": [
        {
          "internalType": "bool",
          "name": "",
          "type": "bool"
        }
      ],
      "stateMutability": "view",
      "type": "function"
    },
    {
      "inputs": [],
      "name": "maxGiftMintId",
      "outputs": [
        {
          "internalType": "uint256",
          "name": "",
          "type": "uint256"
        }
      ],
      "stateMutability": "view",
      "type": "function"
    },
    {
      "inputs": [],
      "name": "maxPublicMint",
      "outputs": [
        {
          "internalType": "uint256",
          "name": "",
          "type": "uint256"
        }
      ],
      "stateMutability": "view",
      "type": "function"
    },
    {
      "inputs": [],
      "name": "maxWhitelistId",
      "outputs": [
        {
          "internalType": "uint256",
          "name": "",
          "type": "uint256"
        }
      ],
      "stateMutability": "view",
      "type": "function"
    },
    {
      "inputs": [
        {
          "internalType": "bytes32[]",
          "name": "merkleProof",
          "type": "bytes32[]"
        }
      ],
      "name": "mintGift",
      "outputs": [],
      "stateMutability": "nonpayable",
      "type": "function"
    },
    {
      "inputs": [
        {
          "internalType": "bytes32[]",
          "name": "merkleProof",
          "type": "bytes32[]"
        }
      ],
      "name": "mintWhitelist",
      "outputs": [],
      "stateMutability": "payable",
      "type": "function"
    },
    {
      "inputs": [],
      "name": "name",
      "outputs": [
        {
          "internalType": "string",
          "name": "",
          "type": "string"
        }
      ],
      "stateMutability": "view",
      "type": "function"
    },
    {
      "inputs": [],
      "name": "owner",
      "outputs": [
        {
          "internalType": "address",
          "name": "",
          "type": "address"
        }
      ],
      "stateMutability": "view",
      "type": "function"
    },
    {
      "inputs": [
        {
          "internalType": "uint256",
          "name": "tokenId",
          "type": "uint256"
        }
      ],
      "name": "ownerOf",
      "outputs": [
        {
          "internalType": "address",
          "name": "",
          "type": "address"
        }
      ],
      "stateMutability": "view",
      "type": "function"
    },
    {
      "inputs": [
        {
          "internalType": "uint256",
          "name": "numberOfTokens",
          "type": "uint256"
        }
      ],
      "name": "publicMint",
      "outputs": [],
      "stateMutability": "payable",
      "type": "function"
    },
    {
      "inputs": [],
      "name": "publicMintId",
      "outputs": [
        {
          "internalType": "uint256",
          "name": "",
          "type": "uint256"
        }
      ],
      "stateMutability": "view",
      "type": "function"
    },
    {
      "inputs": [],
      "name": "renounceOwnership",
      "outputs": [],
      "stateMutability": "nonpayable",
      "type": "function"
    },
    {
      "inputs": [
        {
          "internalType": "address",
          "name": "from",
          "type": "address"
        },
        {
          "internalType": "address",
          "name": "to",
          "type": "address"
        },
        {
          "internalType": "uint256",
          "name": "tokenId",
          "type": "uint256"
        }
      ],
      "name": "safeTransferFrom",
      "outputs": [],
      "stateMutability": "nonpayable",
      "type": "function"
    },
    {
      "inputs": [
        {
          "internalType": "address",
          "name": "from",
          "type": "address"
        },
        {
          "internalType": "address",
          "name": "to",
          "type": "address"
        },
        {
          "internalType": "uint256",
          "name": "tokenId",
          "type": "uint256"
        },
        {
          "internalType": "bytes",
          "name": "_data",
          "type": "bytes"
        }
      ],
      "name": "safeTransferFrom",
      "outputs": [],
      "stateMutability": "nonpayable",
      "type": "function"
    },
    {
      "inputs": [
        {
          "internalType": "address",
          "name": "operator",
          "type": "address"
        },
        {
          "internalType": "bool",
          "name": "approved",
          "type": "bool"
        }
      ],
      "name": "setApprovalForAll",
      "outputs": [],
      "stateMutability": "nonpayable",
      "type": "function"
    },
    {
      "inputs": [
        {
          "internalType": "string",
          "name": "_baseURI",
          "type": "string"
        }
      ],
      "name": "setBaseURI",
      "outputs": [],
      "stateMutability": "nonpayable",
      "type": "function"
    },
    {
      "inputs": [
        {
          "internalType": "bytes32",
          "name": "merkleRoot",
          "type": "bytes32"
        }
      ],
      "name": "setGiftMerkleRoot",
      "outputs": [],
      "stateMutability": "nonpayable",
      "type": "function"
    },
    {
      "inputs": [
        {
          "internalType": "bytes32",
          "name": "merkleRoot",
          "type": "bytes32"
        }
      ],
      "name": "setWhitelistMerkleRoot",
      "outputs": [],
      "stateMutability": "nonpayable",
      "type": "function"
    },
    {
      "inputs": [
        {
          "internalType": "bytes4",
          "name": "interfaceId",
          "type": "bytes4"
        }
      ],
      "name": "supportsInterface",
      "outputs": [
        {
          "internalType": "bool",
          "name": "",
          "type": "bool"
        }
      ],
      "stateMutability": "view",
      "type": "function"
    },
    {
      "inputs": [],
      "name": "symbol",
      "outputs": [
        {
          "internalType": "string",
          "name": "",
          "type": "string"
        }
      ],
      "stateMutability": "view",
      "type": "function"
    },
    {
      "inputs": [
        {
          "internalType": "uint256",
          "name": "tokenId",
          "type": "uint256"
        }
      ],
      "name": "tokenURI",
      "outputs": [
        {
          "internalType": "string",
          "name": "",
          "type": "string"
        }
      ],
      "stateMutability": "view",
      "type": "function"
    },
    {
      "inputs": [
        {
          "internalType": "address",
          "name": "from",
          "type": "address"
        },
        {
          "internalType": "address",
          "name": "to",
          "type": "address"
        },
        {
          "internalType": "uint256",
          "name": "tokenId",
          "type": "uint256"
        }
      ],
      "name": "transferFrom",
      "outputs": [],
      "stateMutability": "nonpayable",
      "type": "function"
    },
    {
      "inputs": [
        {
          "internalType": "address",
          "name": "newOwner",
          "type": "address"
        }
      ],
      "name": "transferOwnership",
      "outputs": [],
      "stateMutability": "nonpayable",
      "type": "function"
    },
    {
      "inputs": [],
      "name": "whitelistId",
      "outputs": [
        {
          "internalType": "uint256",
          "name": "",
          "type": "uint256"
        }
      ],
      "stateMutability": "view",
      "type": "function"
    },
    {
      "inputs": [],
      "name": "whitelistMerkleRoot",
      "outputs": [
        {
          "internalType": "bytes32",
          "name": "",
          "type": "bytes32"
        }
      ],
      "stateMutability": "view",
      "type": "function"
    },
    {
      "inputs": [],
      "name": "withdraw",
      "outputs": [],
      "stateMutability": "nonpayable",
      "type": "function"
    },
    {
      "inputs": [
        {
          "internalType": "contract IERC20",
          "name": "token",
          "type": "address"
        }
      ],
      "name": "withdrawTokens",
      "outputs": [],
      "stateMutability": "nonpayable",
      "type": "function"
    }
  ],
  "bytecode": "0x60e060405260196080908152506001600b556103e860a0908152506006600c5561177060c0908152506103e9600d553480156200003b57600080fd5b5060405162004bf638038062004bf68339818101604052810190620000619190620004c3565b6040518060400160405280600a81526020017f53616d706c65204e4654000000000000000000000000000000000000000000008152506040518060400160405280600381526020017f4e465400000000000000000000000000000000000000000000000000000000008152508160009080519060200190620000e5929190620003a1565b508060019080519060200190620000fe929190620003a1565b50505062000121620001156200015360201b60201c565b6200015b60201b60201c565b60016008819055506200013a826200022160201b60201c565b6200014b81620002cc60201b60201c565b505062000729565b600033905090565b6000600760009054906101000a900473ffffffffffffffffffffffffffffffffffffffff16905081600760006101000a81548173ffffffffffffffffffffffffffffffffffffffff021916908373ffffffffffffffffffffffffffffffffffffffff1602179055508173ffffffffffffffffffffffffffffffffffffffff168173ffffffffffffffffffffffffffffffffffffffff167f8be0079c531659141344cd1fd0a4f28419497f9722a3daafe3b4186f6b6457e060405160405180910390a35050565b620002316200015360201b60201c565b73ffffffffffffffffffffffffffffffffffffffff16620002576200037760201b60201c565b73ffffffffffffffffffffffffffffffffffffffff1614620002b0576040517f08c379a0000000000000000000000000000000000000000000000000000000008152600401620002a7906200055d565b60405180910390fd5b80600a9080519060200190620002c8929190620003a1565b5050565b620002dc6200015360201b60201c565b73ffffffffffffffffffffffffffffffffffffffff16620003026200037760201b60201c565b73ffffffffffffffffffffffffffffffffffffffff16146200035b576040517f08c379a000000000000000000000000000000000000000000000000000000000815260040162000352906200055d565b60405180910390fd5b806009908051906020019062000373929190620003a1565b5050565b6000600760009054906101000a900473ffffffffffffffffffffffffffffffffffffffff16905090565b828054620003af9062000625565b90600052602060002090601f016020900481019282620003d357600085556200041f565b82601f10620003ee57805160ff19168380011785556200041f565b828001600101855582156200041f579182015b828111156200041e57825182559160200191906001019062000401565b5b5090506200042e919062000432565b5090565b5b808211156200044d57600081600090555060010162000433565b5090565b6000620004686200046284620005a8565b6200057f565b9050828152602081018484840111156200048157600080fd5b6200048e848285620005ef565b509392505050565b600082601f830112620004a857600080fd5b8151620004ba84826020860162000451565b91505092915050565b60008060408385031215620004d757600080fd5b600083015167ffffffffffffffff811115620004f257600080fd5b620005008582860162000496565b925050602083015167ffffffffffffffff8111156200051e57600080fd5b6200052c8582860162000496565b9150509250929050565b600062000545602083620005de565b9150620005528262000700565b602082019050919050565b60006020820190508181036000830152620005788162000536565b9050919050565b60006200058b6200059e565b90506200059982826200065b565b919050565b6000604051905090565b600067ffffffffffffffff821115620005c657620005c5620006c0565b5b620005d182620006ef565b9050602081019050919050565b600082825260208201905092915050565b60005b838110156200060f578082015181840152602081019050620005f2565b838111156200061f576000848401525b50505050565b600060028204905060018216806200063e57607f821691505b6020821081141562000655576200065462000691565b5b50919050565b6200066682620006ef565b810181811067ffffffffffffffff82111715620006885762000687620006c0565b5b80604052505050565b7f4e487b7100000000000000000000000000000000000000000000000000000000600052602260045260246000fd5b7f4e487b7100000000000000000000000000000000000000000000000000000000600052604160045260246000fd5b6000601f19601f8301169050919050565b7f4f776e61626c653a2063616c6c6572206973206e6f7420746865206f776e6572600082015250565b60805160a05160c0516144886200076e60003960008181610c530152611ae80152600081816110340152611b0c015260008181611664015261178c01526144886000f3fe60806040526004361061021a5760003560e01c8063715018a611610123578063bc912e1a116100ab578063d30068a41161006f578063d30068a414610791578063e68be24a146107bc578063e8a3d485146107e7578063e985e9c514610812578063f2fde38b1461084f5761021a565b8063bc912e1a14610698578063bd32fb66146106c3578063c87b56dd146106ec578063c884ef8314610729578063cabadaa0146107665761021a565b806395d89b41116100f257806395d89b41146105c5578063a19829c0146105f0578063a22cb4651461061b578063aa98e0c614610644578063b88d4fde1461066f5761021a565b8063715018a61461052f57806380e95ae114610546578063811dab35146105715780638da5cb5b1461059a5761021a565b80633ba46d46116101a657806349df728c1161017557806349df728c1461043857806355f804b3146104615780636352211e1461048a5780636c0360eb146104c757806370a08231146104f25761021a565b80633ba46d46146103b35780633ccfd60b146103dc57806342842e0e146103f357806344d843811461041c5761021a565b8063095ea7b3116101ed578063095ea7b3146102ef5780630fab61971461031857806323b872dd146103435780632db115441461036c57806330478b67146103885761021a565b806301ffc9a71461021f57806306fdde031461025c57806307e89ec014610287578063081812fc146102b2575b600080fd5b34801561022b57600080fd5b5061024660048036038101906102419190612f89565b610878565b604051610253919061360b565b60405180910390f35b34801561026857600080fd5b5061027161095a565b60405161027e9190613641565b60405180910390f35b34801561029357600080fd5b5061029c6109ec565b6040516102a99190613923565b60405180910390f35b3480156102be57600080fd5b506102d960048036038101906102d49190613045565b6109f7565b6040516102e6919061357b565b60405180910390f35b3480156102fb57600080fd5b5061031660048036038101906103119190612eb6565b610a7c565b005b34801561032457600080fd5b5061032d610b94565b60405161033a9190613923565b60405180910390f35b34801561034f57600080fd5b5061036a60048036038101906103659190612db0565b610b9a565b005b61038660048036038101906103819190613045565b610bfa565b005b34801561039457600080fd5b5061039d610d60565b6040516103aa9190613923565b60405180910390f35b3480156103bf57600080fd5b506103da60048036038101906103d59190612f60565b610d66565b005b3480156103e857600080fd5b506103f1610dec565b005b3480156103ff57600080fd5b5061041a60048036038101906104159190612db0565b610eb7565b005b61043660048036038101906104319190612ef2565b610ed7565b005b34801561044457600080fd5b5061045f600480360381019061045a9190612fdb565b6111b1565b005b34801561046d57600080fd5b5061048860048036038101906104839190613004565b61134c565b005b34801561049657600080fd5b506104b160048036038101906104ac9190613045565b6113e2565b6040516104be919061357b565b60405180910390f35b3480156104d357600080fd5b506104dc611494565b6040516104e99190613641565b60405180910390f35b3480156104fe57600080fd5b5061051960048036038101906105149190612d4b565b611522565b6040516105269190613923565b60405180910390f35b34801561053b57600080fd5b506105446115da565b005b34801561055257600080fd5b5061055b611662565b6040516105689190613923565b60405180910390f35b34801561057d57600080fd5b5061059860048036038101906105939190612ef2565b611686565b005b3480156105a657600080fd5b506105af611879565b6040516105bc919061357b565b60405180910390f35b3480156105d157600080fd5b506105da6118a3565b6040516105e79190613641565b60405180910390f35b3480156105fc57600080fd5b50610605611935565b6040516106129190613626565b60405180910390f35b34801561062757600080fd5b50610642600480360381019061063d9190612e7a565b61193b565b005b34801561065057600080fd5b50610659611951565b6040516106669190613626565b60405180910390f35b34801561067b57600080fd5b5061069660048036038101906106919190612dff565b611957565b005b3480156106a457600080fd5b506106ad6119b9565b6040516106ba9190613923565b60405180910390f35b3480156106cf57600080fd5b506106ea60048036038101906106e59190612f60565b6119c4565b005b3480156106f857600080fd5b50610713600480360381019061070e9190613045565b611a4a565b6040516107209190613641565b60405180910390f35b34801561073557600080fd5b50610750600480360381019061074b9190612d4b565b611ac6565b60405161075d919061360b565b60405180910390f35b34801561077257600080fd5b5061077b611ae6565b6040516107889190613923565b60405180910390f35b34801561079d57600080fd5b506107a6611b0a565b6040516107b39190613923565b60405180910390f35b3480156107c857600080fd5b506107d1611b2e565b6040516107de9190613923565b60405180910390f35b3480156107f357600080fd5b506107fc611b34565b6040516108099190613641565b60405180910390f35b34801561081e57600080fd5b5061083960048036038101906108349190612d74565b611bc6565b604051610846919061360b565b60405180910390f35b34801561085b57600080fd5b5061087660048036038101906108719190612d4b565b611c5a565b005b60007f80ac58cd000000000000000000000000000000000000000000000000000000007bffffffffffffffffffffffffffffffffffffffffffffffffffffffff1916827bffffffffffffffffffffffffffffffffffffffffffffffffffffffff1916148061094357507f5b5e139f000000000000000000000000000000000000000000000000000000007bffffffffffffffffffffffffffffffffffffffffffffffffffffffff1916827bffffffffffffffffffffffffffffffffffffffffffffffffffffffff1916145b80610953575061095282611d52565b5b9050919050565b60606000805461096990613c04565b80601f016020809104026020016040519081016040528092919081815260200182805461099590613c04565b80156109e25780601f106109b7576101008083540402835291602001916109e2565b820191906000526020600020905b8154815290600101906020018083116109c557829003601f168201915b5050505050905090565b66470de4df82000081565b6000610a0282611dbc565b610a41576040517f08c379a0000000000000000000000000000000000000000000000000000000008152600401610a3890613863565b60405180910390fd5b6004600083815260200190815260200160002060009054906101000a900473ffffffffffffffffffffffffffffffffffffffff169050919050565b6000610a87826113e2565b90508073ffffffffffffffffffffffffffffffffffffffff168373ffffffffffffffffffffffffffffffffffffffff161415610af8576040517f08c379a0000000000000000000000000000000000000000000000000000000008152600401610aef906138a3565b60405180910390fd5b8073ffffffffffffffffffffffffffffffffffffffff16610b17611e28565b73ffffffffffffffffffffffffffffffffffffffff161480610b465750610b4581610b40611e28565b611bc6565b5b610b85576040517f08c379a0000000000000000000000000000000000000000000000000000000008152600401610b7c906137c3565b60405180910390fd5b610b8f8383611e30565b505050565b600d5481565b610bab610ba5611e28565b82611ee9565b610bea576040517f08c379a0000000000000000000000000000000000000000000000000000000008152600401610be1906138c3565b60405180910390fd5b610bf5838383611fc7565b505050565b66470de4df82000081348183610c109190613aa4565b14610c50576040517f08c379a0000000000000000000000000000000000000000000000000000000008152600401610c47906138e3565b60405180910390fd5b827f000000000000000000000000000000000000000000000000000000000000000081600d54610c809190613a1d565b1115610cc1576040517f08c379a0000000000000000000000000000000000000000000000000000000008152600401610cb890613723565b60405180910390fd5b60026008541415610d07576040517f08c379a0000000000000000000000000000000000000000000000000000000008152600401610cfe90613903565b60405180910390fd5b600260088190555060005b84811015610d5157610d2633600d5461222e565b600d6000815480929190610d3990613c67565b91905055508080610d4990613c67565b915050610d12565b50600160088190555050505050565b600b5481565b610d6e611e28565b73ffffffffffffffffffffffffffffffffffffffff16610d8c611879565b73ffffffffffffffffffffffffffffffffffffffff1614610de2576040517f08c379a0000000000000000000000000000000000000000000000000000000008152600401610dd990613883565b60405180910390fd5b80600e8190555050565b610df4611e28565b73ffffffffffffffffffffffffffffffffffffffff16610e12611879565b73ffffffffffffffffffffffffffffffffffffffff1614610e68576040517f08c379a0000000000000000000000000000000000000000000000000000000008152600401610e5f90613883565b60405180910390fd5b60004790503373ffffffffffffffffffffffffffffffffffffffff166108fc829081150290604051600060405180830381858888f19350505050158015610eb3573d6000803e3d6000fd5b5050565b610ed283838360405180602001604052806000815250611957565b505050565b8181600f54610f4e838380806020026020016040519081016040528093929190818152602001838360200280828437600081840152601f19601f820116905080830192505050505050508233604051602001610f339190613531565b60405160208183030381529060405280519060200120612408565b610f8d576040517f08c379a0000000000000000000000000000000000000000000000000000000008152600401610f8490613763565b60405180910390fd5b662386f26fc100006001348183610fa49190613aa4565b14610fe4576040517f08c379a0000000000000000000000000000000000000000000000000000000008152600401610fdb906138e3565b60405180910390fd5b6002600854141561102a576040517f08c379a000000000000000000000000000000000000000000000000000000000815260040161102190613903565b60405180910390fd5b60026008819055507f0000000000000000000000000000000000000000000000000000000000000000600c541115611097576040517f08c379a000000000000000000000000000000000000000000000000000000000815260040161108e90613783565b60405180910390fd5b601060003373ffffffffffffffffffffffffffffffffffffffff1673ffffffffffffffffffffffffffffffffffffffff16815260200190815260200160002060009054906101000a900460ff1615611124576040517f08c379a000000000000000000000000000000000000000000000000000000000815260040161111b906137a3565b60405180910390fd5b61113033600c5461222e565b600c600081548092919061114390613c67565b91905055506001601060003373ffffffffffffffffffffffffffffffffffffffff1673ffffffffffffffffffffffffffffffffffffffff16815260200190815260200160002060006101000a81548160ff021916908315150217905550600160088190555050505050505050565b6111b9611e28565b73ffffffffffffffffffffffffffffffffffffffff166111d7611879565b73ffffffffffffffffffffffffffffffffffffffff161461122d576040517f08c379a000000000000000000000000000000000000000000000000000000000815260040161122490613883565b60405180910390fd5b60008173ffffffffffffffffffffffffffffffffffffffff166370a08231306040518263ffffffff1660e01b8152600401611268919061357b565b60206040518083038186803b15801561128057600080fd5b505afa158015611294573d6000803e3d6000fd5b505050506040513d601f19601f820116820180604052508101906112b8919061306e565b90508173ffffffffffffffffffffffffffffffffffffffff1663a9059cbb33836040518363ffffffff1660e01b81526004016112f59291906135e2565b602060405180830381600087803b15801561130f57600080fd5b505af1158015611323573d6000803e3d6000fd5b505050506040513d601f19601f820116820180604052508101906113479190612f37565b505050565b611354611e28565b73ffffffffffffffffffffffffffffffffffffffff16611372611879565b73ffffffffffffffffffffffffffffffffffffffff16146113c8576040517f08c379a00000000000000000000000000000000000000000000000000000000081526004016113bf90613883565b60405180910390fd5b80600a90805190602001906113de929190612ad1565b5050565b6000806002600084815260200190815260200160002060009054906101000a900473ffffffffffffffffffffffffffffffffffffffff169050600073ffffffffffffffffffffffffffffffffffffffff168173ffffffffffffffffffffffffffffffffffffffff16141561148b576040517f08c379a000000000000000000000000000000000000000000000000000000000815260040161148290613803565b60405180910390fd5b80915050919050565b600a80546114a190613c04565b80601f01602080910402602001604051908101604052809291908181526020018280546114cd90613c04565b801561151a5780601f106114ef5761010080835404028352916020019161151a565b820191906000526020600020905b8154815290600101906020018083116114fd57829003601f168201915b505050505081565b60008073ffffffffffffffffffffffffffffffffffffffff168273ffffffffffffffffffffffffffffffffffffffff161415611593576040517f08c379a000000000000000000000000000000000000000000000000000000000815260040161158a906137e3565b60405180910390fd5b600360008373ffffffffffffffffffffffffffffffffffffffff1673ffffffffffffffffffffffffffffffffffffffff168152602001908152602001600020549050919050565b6115e2611e28565b73ffffffffffffffffffffffffffffffffffffffff16611600611879565b73ffffffffffffffffffffffffffffffffffffffff1614611656576040517f08c379a000000000000000000000000000000000000000000000000000000000815260040161164d90613883565b60405180910390fd5b611660600061241f565b565b7f000000000000000000000000000000000000000000000000000000000000000081565b8181600e546116fd838380806020026020016040519081016040528093929190818152602001838360200280828437600081840152601f19601f8201169050808301925050505050505082336040516020016116e29190613531565b60405160208183030381529060405280519060200120612408565b61173c576040517f08c379a000000000000000000000000000000000000000000000000000000000815260040161173390613763565b60405180910390fd5b60026008541415611782576040517f08c379a000000000000000000000000000000000000000000000000000000000815260040161177990613903565b60405180910390fd5b60026008819055507f0000000000000000000000000000000000000000000000000000000000000000600b5411156117b957600080fd5b601060003373ffffffffffffffffffffffffffffffffffffffff1673ffffffffffffffffffffffffffffffffffffffff16815260200190815260200160002060009054906101000a900460ff1615611846576040517f08c379a000000000000000000000000000000000000000000000000000000000815260040161183d906137a3565b60405180910390fd5b61185233600b5461222e565b600b600081548092919061186590613c67565b919050555060016008819055505050505050565b6000600760009054906101000a900473ffffffffffffffffffffffffffffffffffffffff16905090565b6060600180546118b290613c04565b80601f01602080910402602001604051908101604052809291908181526020018280546118de90613c04565b801561192b5780601f106119005761010080835404028352916020019161192b565b820191906000526020600020905b81548152906001019060200180831161190e57829003601f168201915b5050505050905090565b600e5481565b61194d611946611e28565b83836124e5565b5050565b600f5481565b611968611962611e28565b83611ee9565b6119a7576040517f08c379a000000000000000000000000000000000000000000000000000000000815260040161199e906138c3565b60405180910390fd5b6119b384848484612652565b50505050565b662386f26fc1000081565b6119cc611e28565b73ffffffffffffffffffffffffffffffffffffffff166119ea611879565b73ffffffffffffffffffffffffffffffffffffffff1614611a40576040517f08c379a0000000000000000000000000000000000000000000000000000000008152600401611a3790613883565b60405180910390fd5b80600f8190555050565b6060611a5582611dbc565b611a94576040517f08c379a0000000000000000000000000000000000000000000000000000000008152600401611a8b90613843565b60405180910390fd5b600a611a9f836126ae565b604051602001611ab092919061354c565b6040516020818303038152906040529050919050565b60106020528060005260406000206000915054906101000a900460ff1681565b7f000000000000000000000000000000000000000000000000000000000000000081565b7f000000000000000000000000000000000000000000000000000000000000000081565b600c5481565b606060098054611b4390613c04565b80601f0160208091040260200160405190810160405280929190818152602001828054611b6f90613c04565b8015611bbc5780601f10611b9157610100808354040283529160200191611bbc565b820191906000526020600020905b815481529060010190602001808311611b9f57829003601f168201915b5050505050905090565b6000600560008473ffffffffffffffffffffffffffffffffffffffff1673ffffffffffffffffffffffffffffffffffffffff16815260200190815260200160002060008373ffffffffffffffffffffffffffffffffffffffff1673ffffffffffffffffffffffffffffffffffffffff16815260200190815260200160002060009054906101000a900460ff16905092915050565b611c62611e28565b73ffffffffffffffffffffffffffffffffffffffff16611c80611879565b73ffffffffffffffffffffffffffffffffffffffff1614611cd6576040517f08c379a0000000000000000000000000000000000000000000000000000000008152600401611ccd90613883565b60405180910390fd5b600073ffffffffffffffffffffffffffffffffffffffff168173ffffffffffffffffffffffffffffffffffffffff161415611d46576040517f08c379a0000000000000000000000000000000000000000000000000000000008152600401611d3d90613683565b60405180910390fd5b611d4f8161241f565b50565b60007f01ffc9a7000000000000000000000000000000000000000000000000000000007bffffffffffffffffffffffffffffffffffffffffffffffffffffffff1916827bffffffffffffffffffffffffffffffffffffffffffffffffffffffff1916149050919050565b60008073ffffffffffffffffffffffffffffffffffffffff166002600084815260200190815260200160002060009054906101000a900473ffffffffffffffffffffffffffffffffffffffff1673ffffffffffffffffffffffffffffffffffffffff1614159050919050565b600033905090565b816004600083815260200190815260200160002060006101000a81548173ffffffffffffffffffffffffffffffffffffffff021916908373ffffffffffffffffffffffffffffffffffffffff160217905550808273ffffffffffffffffffffffffffffffffffffffff16611ea3836113e2565b73ffffffffffffffffffffffffffffffffffffffff167f8c5be1e5ebec7d5bd14f71427d1e84f3dd0314c0f7b2291e5b200ac8c7c3b92560405160405180910390a45050565b6000611ef482611dbc565b611f33576040517f08c379a0000000000000000000000000000000000000000000000000000000008152600401611f2a90613743565b60405180910390fd5b6000611f3e836113e2565b90508073ffffffffffffffffffffffffffffffffffffffff168473ffffffffffffffffffffffffffffffffffffffff161480611fad57508373ffffffffffffffffffffffffffffffffffffffff16611f95846109f7565b73ffffffffffffffffffffffffffffffffffffffff16145b80611fbe5750611fbd8185611bc6565b5b91505092915050565b8273ffffffffffffffffffffffffffffffffffffffff16611fe7826113e2565b73ffffffffffffffffffffffffffffffffffffffff161461203d576040517f08c379a0000000000000000000000000000000000000000000000000000000008152600401612034906136a3565b60405180910390fd5b600073ffffffffffffffffffffffffffffffffffffffff168273ffffffffffffffffffffffffffffffffffffffff1614156120ad576040517f08c379a00000000000000000000000000000000000000000000000000000000081526004016120a4906136e3565b60405180910390fd5b6120b883838361285b565b6120c3600082611e30565b6001600360008573ffffffffffffffffffffffffffffffffffffffff1673ffffffffffffffffffffffffffffffffffffffff16815260200190815260200160002060008282546121139190613afe565b925050819055506001600360008473ffffffffffffffffffffffffffffffffffffffff1673ffffffffffffffffffffffffffffffffffffffff168152602001908152602001600020600082825461216a9190613a1d565b92505081905550816002600083815260200190815260200160002060006101000a81548173ffffffffffffffffffffffffffffffffffffffff021916908373ffffffffffffffffffffffffffffffffffffffff160217905550808273ffffffffffffffffffffffffffffffffffffffff168473ffffffffffffffffffffffffffffffffffffffff167fddf252ad1be2c89b69c2b068fc378daa952ba7f163c4a11628f55a4df523b3ef60405160405180910390a4612229838383612860565b505050565b600073ffffffffffffffffffffffffffffffffffffffff168273ffffffffffffffffffffffffffffffffffffffff16141561229e576040517f08c379a000000000000000000000000000000000000000000000000000000000815260040161229590613823565b60405180910390fd5b6122a781611dbc565b156122e7576040517f08c379a00000000000000000000000000000000000000000000000000000000081526004016122de906136c3565b60405180910390fd5b6122f36000838361285b565b6001600360008473ffffffffffffffffffffffffffffffffffffffff1673ffffffffffffffffffffffffffffffffffffffff16815260200190815260200160002060008282546123439190613a1d565b92505081905550816002600083815260200190815260200160002060006101000a81548173ffffffffffffffffffffffffffffffffffffffff021916908373ffffffffffffffffffffffffffffffffffffffff160217905550808273ffffffffffffffffffffffffffffffffffffffff16600073ffffffffffffffffffffffffffffffffffffffff167fddf252ad1be2c89b69c2b068fc378daa952ba7f163c4a11628f55a4df523b3ef60405160405180910390a461240460008383612860565b5050565b6000826124158584612865565b1490509392505050565b6000600760009054906101000a900473ffffffffffffffffffffffffffffffffffffffff16905081600760006101000a81548173ffffffffffffffffffffffffffffffffffffffff021916908373ffffffffffffffffffffffffffffffffffffffff1602179055508173ffffffffffffffffffffffffffffffffffffffff168173ffffffffffffffffffffffffffffffffffffffff167f8be0079c531659141344cd1fd0a4f28419497f9722a3daafe3b4186f6b6457e060405160405180910390a35050565b8173ffffffffffffffffffffffffffffffffffffffff168373ffffffffffffffffffffffffffffffffffffffff161415612554576040517f08c379a000000000000000000000000000000000000000000000000000000000815260040161254b90613703565b60405180910390fd5b80600560008573ffffffffffffffffffffffffffffffffffffffff1673ffffffffffffffffffffffffffffffffffffffff16815260200190815260200160002060008473ffffffffffffffffffffffffffffffffffffffff1673ffffffffffffffffffffffffffffffffffffffff16815260200190815260200160002060006101000a81548160ff0219169083151502179055508173ffffffffffffffffffffffffffffffffffffffff168373ffffffffffffffffffffffffffffffffffffffff167f17307eab39ab6107e8899845ad3d59bd9653f200f220920489ca2b5937696c3183604051612645919061360b565b60405180910390a3505050565b61265d848484611fc7565b61266984848484612900565b6126a8576040517f08c379a000000000000000000000000000000000000000000000000000000000815260040161269f90613663565b60405180910390fd5b50505050565b606060008214156126f6576040518060400160405280600181526020017f30000000000000000000000000000000000000000000000000000000000000008152509050612856565b600082905060005b6000821461272857808061271190613c67565b915050600a826127219190613a73565b91506126fe565b60008167ffffffffffffffff81111561276a577f4e487b7100000000000000000000000000000000000000000000000000000000600052604160045260246000fd5b6040519080825280601f01601f19166020018201604052801561279c5781602001600182028036833780820191505090505b5090505b6000851461284f576001826127b59190613afe565b9150600a856127c49190613cd4565b60306127d09190613a1d565b60f81b81838151811061280c577f4e487b7100000000000000000000000000000000000000000000000000000000600052603260045260246000fd5b60200101907effffffffffffffffffffffffffffffffffffffffffffffffffffffffffffff1916908160001a905350600a856128489190613a73565b94506127a0565b8093505050505b919050565b505050565b505050565b60008082905060005b84518110156128f55760008582815181106128b2577f4e487b7100000000000000000000000000000000000000000000000000000000600052603260045260246000fd5b602002602001015190508083116128d4576128cd8382612a97565b92506128e1565b6128de8184612a97565b92505b5080806128ed90613c67565b91505061286e565b508091505092915050565b60006129218473ffffffffffffffffffffffffffffffffffffffff16612aae565b15612a8a578373ffffffffffffffffffffffffffffffffffffffff1663150b7a0261294a611e28565b8786866040518563ffffffff1660e01b815260040161296c9493929190613596565b602060405180830381600087803b15801561298657600080fd5b505af19250505080156129b757506040513d601f19601f820116820180604052508101906129b49190612fb2565b60015b612a3a573d80600081146129e7576040519150601f19603f3d011682016040523d82523d6000602084013e6129ec565b606091505b50600081511415612a32576040517f08c379a0000000000000000000000000000000000000000000000000000000008152600401612a2990613663565b60405180910390fd5b805181602001fd5b63150b7a0260e01b7bffffffffffffffffffffffffffffffffffffffffffffffffffffffff1916817bffffffffffffffffffffffffffffffffffffffffffffffffffffffff191614915050612a8f565b600190505b949350505050565b600082600052816020526040600020905092915050565b6000808273ffffffffffffffffffffffffffffffffffffffff163b119050919050565b828054612add90613c04565b90600052602060002090601f016020900481019282612aff5760008555612b46565b82601f10612b1857805160ff1916838001178555612b46565b82800160010185558215612b46579182015b82811115612b45578251825591602001919060010190612b2a565b5b509050612b539190612b57565b5090565b5b80821115612b70576000816000905550600101612b58565b5090565b6000612b87612b8284613963565b61393e565b905082815260208101848484011115612b9f57600080fd5b612baa848285613bc2565b509392505050565b6000612bc5612bc084613994565b61393e565b905082815260208101848484011115612bdd57600080fd5b612be8848285613bc2565b509392505050565b600081359050612bff816143c8565b92915050565b60008083601f840112612c1757600080fd5b8235905067ffffffffffffffff811115612c3057600080fd5b602083019150836020820283011115612c4857600080fd5b9250929050565b600081359050612c5e816143df565b92915050565b600081519050612c73816143df565b92915050565b600081359050612c88816143f6565b92915050565b600081359050612c9d8161440d565b92915050565b600081519050612cb28161440d565b92915050565b600082601f830112612cc957600080fd5b8135612cd9848260208601612b74565b91505092915050565b600081359050612cf181614424565b92915050565b600082601f830112612d0857600080fd5b8135612d18848260208601612bb2565b91505092915050565b600081359050612d308161443b565b92915050565b600081519050612d458161443b565b92915050565b600060208284031215612d5d57600080fd5b6000612d6b84828501612bf0565b91505092915050565b60008060408385031215612d8757600080fd5b6000612d9585828601612bf0565b9250506020612da685828601612bf0565b9150509250929050565b600080600060608486031215612dc557600080fd5b6000612dd386828701612bf0565b9350506020612de486828701612bf0565b9250506040612df586828701612d21565b9150509250925092565b60008060008060808587031215612e1557600080fd5b6000612e2387828801612bf0565b9450506020612e3487828801612bf0565b9350506040612e4587828801612d21565b925050606085013567ffffffffffffffff811115612e6257600080fd5b612e6e87828801612cb8565b91505092959194509250565b60008060408385031215612e8d57600080fd5b6000612e9b85828601612bf0565b9250506020612eac85828601612c4f565b9150509250929050565b60008060408385031215612ec957600080fd5b6000612ed785828601612bf0565b9250506020612ee885828601612d21565b9150509250929050565b60008060208385031215612f0557600080fd5b600083013567ffffffffffffffff811115612f1f57600080fd5b612f2b85828601612c05565b92509250509250929050565b600060208284031215612f4957600080fd5b6000612f5784828501612c64565b91505092915050565b600060208284031215612f7257600080fd5b6000612f8084828501612c79565b91505092915050565b600060208284031215612f9b57600080fd5b6000612fa984828501612c8e565b91505092915050565b600060208284031215612fc457600080fd5b6000612fd284828501612ca3565b91505092915050565b600060208284031215612fed57600080fd5b6000612ffb84828501612ce2565b91505092915050565b60006020828403121561301657600080fd5b600082013567ffffffffffffffff81111561303057600080fd5b61303c84828501612cf7565b91505092915050565b60006020828403121561305757600080fd5b600061306584828501612d21565b91505092915050565b60006020828403121561308057600080fd5b600061308e84828501612d36565b91505092915050565b6130a081613b32565b82525050565b6130b76130b282613b32565b613cb0565b82525050565b6130c681613b44565b82525050565b6130d581613b50565b82525050565b60006130e6826139da565b6130f081856139f0565b9350613100818560208601613bd1565b61310981613dc1565b840191505092915050565b600061311f826139e5565b6131298185613a01565b9350613139818560208601613bd1565b61314281613dc1565b840191505092915050565b6000613158826139e5565b6131628185613a12565b9350613172818560208601613bd1565b80840191505092915050565b6000815461318b81613c04565b6131958186613a12565b945060018216600081146131b057600181146131c1576131f4565b60ff198316865281860193506131f4565b6131ca856139c5565b60005b838110156131ec578154818901526001820191506020810190506131cd565b838801955050505b50505092915050565b600061320a603283613a01565b915061321582613ddf565b604082019050919050565b600061322d602683613a01565b915061323882613e2e565b604082019050919050565b6000613250602583613a01565b915061325b82613e7d565b604082019050919050565b6000613273601c83613a01565b915061327e82613ecc565b602082019050919050565b6000613296602483613a01565b91506132a182613ef5565b604082019050919050565b60006132b9601983613a01565b91506132c482613f44565b602082019050919050565b60006132dc602383613a01565b91506132e782613f6d565b604082019050919050565b60006132ff602c83613a01565b915061330a82613fbc565b604082019050919050565b6000613322601e83613a01565b915061332d8261400b565b602082019050919050565b6000613345602883613a01565b915061335082614034565b604082019050919050565b6000613368602583613a01565b915061337382614083565b604082019050919050565b600061338b603883613a01565b9150613396826140d2565b604082019050919050565b60006133ae602a83613a01565b91506133b982614121565b604082019050919050565b60006133d1602983613a01565b91506133dc82614170565b604082019050919050565b60006133f4602083613a01565b91506133ff826141bf565b602082019050919050565b6000613417602b83613a01565b9150613422826141e8565b604082019050919050565b600061343a602c83613a01565b915061344582614237565b604082019050919050565b600061345d600583613a12565b915061346882614286565b600582019050919050565b6000613480602083613a01565b915061348b826142af565b602082019050919050565b60006134a3602183613a01565b91506134ae826142d8565b604082019050919050565b60006134c6603183613a01565b91506134d182614327565b604082019050919050565b60006134e9601883613a01565b91506134f482614376565b602082019050919050565b600061350c601f83613a01565b91506135178261439f565b602082019050919050565b61352b81613bb8565b82525050565b600061353d82846130a6565b60148201915081905092915050565b6000613558828561317e565b9150613564828461314d565b915061356f82613450565b91508190509392505050565b60006020820190506135906000830184613097565b92915050565b60006080820190506135ab6000830187613097565b6135b86020830186613097565b6135c56040830185613522565b81810360608301526135d781846130db565b905095945050505050565b60006040820190506135f76000830185613097565b6136046020830184613522565b9392505050565b600060208201905061362060008301846130bd565b92915050565b600060208201905061363b60008301846130cc565b92915050565b6000602082019050818103600083015261365b8184613114565b905092915050565b6000602082019050818103600083015261367c816131fd565b9050919050565b6000602082019050818103600083015261369c81613220565b9050919050565b600060208201905081810360008301526136bc81613243565b9050919050565b600060208201905081810360008301526136dc81613266565b9050919050565b600060208201905081810360008301526136fc81613289565b9050919050565b6000602082019050818103600083015261371c816132ac565b9050919050565b6000602082019050818103600083015261373c816132cf565b9050919050565b6000602082019050818103600083015261375c816132f2565b9050919050565b6000602082019050818103600083015261377c81613315565b9050919050565b6000602082019050818103600083015261379c81613338565b9050919050565b600060208201905081810360008301526137bc8161335b565b9050919050565b600060208201905081810360008301526137dc8161337e565b9050919050565b600060208201905081810360008301526137fc816133a1565b9050919050565b6000602082019050818103600083015261381c816133c4565b9050919050565b6000602082019050818103600083015261383c816133e7565b9050919050565b6000602082019050818103600083015261385c8161340a565b9050919050565b6000602082019050818103600083015261387c8161342d565b9050919050565b6000602082019050818103600083015261389c81613473565b9050919050565b600060208201905081810360008301526138bc81613496565b9050919050565b600060208201905081810360008301526138dc816134b9565b9050919050565b600060208201905081810360008301526138fc816134dc565b9050919050565b6000602082019050818103600083015261391c816134ff565b9050919050565b60006020820190506139386000830184613522565b92915050565b6000613948613959565b90506139548282613c36565b919050565b6000604051905090565b600067ffffffffffffffff82111561397e5761397d613d92565b5b61398782613dc1565b9050602081019050919050565b600067ffffffffffffffff8211156139af576139ae613d92565b5b6139b882613dc1565b9050602081019050919050565b60008190508160005260206000209050919050565b600081519050919050565b600081519050919050565b600082825260208201905092915050565b600082825260208201905092915050565b600081905092915050565b6000613a2882613bb8565b9150613a3383613bb8565b9250827fffffffffffffffffffffffffffffffffffffffffffffffffffffffffffffffff03821115613a6857613a67613d05565b5b828201905092915050565b6000613a7e82613bb8565b9150613a8983613bb8565b925082613a9957613a98613d34565b5b828204905092915050565b6000613aaf82613bb8565b9150613aba83613bb8565b9250817fffffffffffffffffffffffffffffffffffffffffffffffffffffffffffffffff0483118215151615613af357613af2613d05565b5b828202905092915050565b6000613b0982613bb8565b9150613b1483613bb8565b925082821015613b2757613b26613d05565b5b828203905092915050565b6000613b3d82613b98565b9050919050565b60008115159050919050565b6000819050919050565b60007fffffffff0000000000000000000000000000000000000000000000000000000082169050919050565b6000613b9182613b32565b9050919050565b600073ffffffffffffffffffffffffffffffffffffffff82169050919050565b6000819050919050565b82818337600083830152505050565b60005b83811015613bef578082015181840152602081019050613bd4565b83811115613bfe576000848401525b50505050565b60006002820490506001821680613c1c57607f821691505b60208210811415613c3057613c2f613d63565b5b50919050565b613c3f82613dc1565b810181811067ffffffffffffffff82111715613c5e57613c5d613d92565b5b80604052505050565b6000613c7282613bb8565b91507fffffffffffffffffffffffffffffffffffffffffffffffffffffffffffffffff821415613ca557613ca4613d05565b5b600182019050919050565b6000613cbb82613cc2565b9050919050565b6000613ccd82613dd2565b9050919050565b6000613cdf82613bb8565b9150613cea83613bb8565b925082613cfa57613cf9613d34565b5b828206905092915050565b7f4e487b7100000000000000000000000000000000000000000000000000000000600052601160045260246000fd5b7f4e487b7100000000000000000000000000000000000000000000000000000000600052601260045260246000fd5b7f4e487b7100000000000000000000000000000000000000000000000000000000600052602260045260246000fd5b7f4e487b7100000000000000000000000000000000000000000000000000000000600052604160045260246000fd5b6000601f19601f8301169050919050565b60008160601b9050919050565b7f4552433732313a207472616e7366657220746f206e6f6e20455243373231526560008201527f63656976657220696d706c656d656e7465720000000000000000000000000000602082015250565b7f4f776e61626c653a206e6577206f776e657220697320746865207a65726f206160008201527f6464726573730000000000000000000000000000000000000000000000000000602082015250565b7f4552433732313a207472616e736665722066726f6d20696e636f72726563742060008201527f6f776e6572000000000000000000000000000000000000000000000000000000602082015250565b7f4552433732313a20746f6b656e20616c7265616479206d696e74656400000000600082015250565b7f4552433732313a207472616e7366657220746f20746865207a65726f2061646460008201527f7265737300000000000000000000000000000000000000000000000000000000602082015250565b7f4552433732313a20617070726f766520746f2063616c6c657200000000000000600082015250565b7f4e6f7420656e6f75676820746f6b656e732072656d61696e696e6720746f206d60008201527f696e740000000000000000000000000000000000000000000000000000000000602082015250565b7f4552433732313a206f70657261746f7220717565727920666f72206e6f6e657860008201527f697374656e7420746f6b656e0000000000000000000000000000000000000000602082015250565b7f4164647265737320646f6573206e6f7420657869737420696e206c6973740000600082015250565b7f6d696e74656420746865206d6178696d756d2023206f662077686974656c697360008201527f7420746f6b656e73000000000000000000000000000000000000000000000000602082015250565b7f4e465420697320616c726561647920636c61696d65642062792074686973207760008201527f616c6c6574000000000000000000000000000000000000000000000000000000602082015250565b7f4552433732313a20617070726f76652063616c6c6572206973206e6f74206f7760008201527f6e6572206e6f7220617070726f76656420666f7220616c6c0000000000000000602082015250565b7f4552433732313a2062616c616e636520717565727920666f7220746865207a6560008201527f726f206164647265737300000000000000000000000000000000000000000000602082015250565b7f4552433732313a206f776e657220717565727920666f72206e6f6e657869737460008201527f656e7420746f6b656e0000000000000000000000000000000000000000000000602082015250565b7f4552433732313a206d696e7420746f20746865207a65726f2061646472657373600082015250565b7f4552433732314d657461646174613a20717565727920666f72206e6f6e65786960008201527f7374656e7420746f6b656e000000000000000000000000000000000000000000602082015250565b7f4552433732313a20617070726f76656420717565727920666f72206e6f6e657860008201527f697374656e7420746f6b656e0000000000000000000000000000000000000000602082015250565b7f2e6a736f6e000000000000000000000000000000000000000000000000000000600082015250565b7f4f776e61626c653a2063616c6c6572206973206e6f7420746865206f776e6572600082015250565b7f4552433732313a20617070726f76616c20746f2063757272656e74206f776e6560008201527f7200000000000000000000000000000000000000000000000000000000000000602082015250565b7f4552433732313a207472616e736665722063616c6c6572206973206e6f74206f60008201527f776e6572206e6f7220617070726f766564000000000000000000000000000000602082015250565b7f496e636f7272656374204554482076616c75652073656e740000000000000000600082015250565b7f5265656e7472616e637947756172643a207265656e7472616e742063616c6c00600082015250565b6143d181613b32565b81146143dc57600080fd5b50565b6143e881613b44565b81146143f357600080fd5b50565b6143ff81613b50565b811461440a57600080fd5b50565b61441681613b5a565b811461442157600080fd5b50565b61442d81613b86565b811461443857600080fd5b50565b61444481613bb8565b811461444f57600080fd5b5056fea26469706673582212206fb6b2204abfffb40717637830d61ecb68651c32e0516ef3e0fa2546ecf4e2cb64736f6c63430008010033",
  "linkReferences": {},
  "deployedLinkReferences": {}
}